:020000040800F2
:1000000000100020C95200081953000819530008B5
:1000100000000000000000000000000000000000E0
:10002000000000000000000000000000195300085C
:1000300000000000000000001953000865150008CA
:100040001953000800000000195300081953000854
:10005000195300083D1500081953000819530008EA
:100060000000000019530008195300081953000834
:100070001953000819530008195300080000000024
:100080005D13000800000000000000001953000884
:10009000000000001114000819530008195300084B
:1000A0000000000019530008000000001953000868
:1000B0000000000000000000000000000000000040
:1000C00010B5064C2378002B07D1054B002B02D02E
:1000D000044800E000BF0123237010BDC4000020CD
:1000E000000000004C570008084B10B5002B03D04F
:1000F0000749084800E000BF07480368002B00D10B
:1001000010BD064B002BFBD09847F9E7000000001C
:10011000C80000204C570008C40000200000000068
:10012000F8B50C001500531A8A4220D90A00FF3294
:10013000521B0020934220D9FF26200002F08CFBA6
:10014000071C300002F088FB011C381C01F0D6FCB3
:10015000061C280002F080FB011C301C02F070F924
:10016000069902F04DF801F093FC201A16E0FF33D7
:100170008A1A00269A42E0D9FF20401902F06CFB4F
:10018000051C200002F068FB011C281C02F058F935
:10019000069902F035F801F07BFC0019C0B2F8BDF9
:1001A000F7B56B46D91D424B08701A0069321278B8
:1001B000202A61D19A68944680225201944504D144
:1001C0001A69002A01D1CA0756D41800683002788B
:1001D000012A51D0012202700020D8661800212483
:1001E000693004701800503002801800314C5230D1
:1001F0002668028018691A6800901D005235288808
:1002000000280CD140252C4FD169294039D01A0043
:10021000202169321170002268331A702CE028887E
:10022000013880B228808025D06928400CD08020F9
:100230004001844521D1009800281ED10888023150
:10024000C005C00D1085D8E71A4D1B4F2D68AD1B9A
:10025000BD42E8D91168194C214011609168A3345E
:10026000FF34A14391601900202269310A701900FE
:1002700068336A310A701870F7BD0878013110854B
:10028000BBE72068801BB842BED910680B4C2040E9
:1002900010609068A334FF34A043906018002022BF
:1002A00069300270180068336A3002701970E3E731
:1002B000E000002068010020102700005FFEFFFF23
:1002C00070B5104C23005C331B78012B02D00E4814
:1002D00000F0E6FC0D4D2E00283623005C331B7821
:1002E000012B02D0280000F0DBFC0435AE42F4D133
:1002F0005C342378012B03D00348043000F0D0FC99
:1003000070BDC046D0020020A857000800000020A1
:10031000F0B50E0087B00321050001F0CBF90321F1
:10032000C4B2280001F04CFA03236343BA4DEB1822
:10033000012900D17AE0022900D179E064331E70EE
:1003400003236343EB186433187802F085FA04F052
:1003500019F80022B14B02F0D5FD0022B04B03F09A
:1003600005FA04F061F8AF49061C01F069FB0028AA
:1003700060D00021301C01F063FB00285FD1301CED
:1003800004F000F80090019103236343ED186535F4
:10039000287803F0B5FF0022A34B06000F0001F000
:1003A00015FB002801D100269F4F3900300004F0D2
:1003B0003BF803226243984B051C9B186633187860
:1003C00003F09EFF0022984B06000F0001F0FEFA9A
:1003D000002801D10026944F3900300004F024F8A1
:1003E0009249061C281C01F01BFD9049071C301C7B
:1003F00001F016FD0021051C381C01F01BFBA300B9
:100400008B4E039300281DD08A49281C01F0F8FE6A
:1004100003F0B8FF05F044F901F052FB039BC0B2B2
:10042000F6187070B070F07007B0F0BD653386E7F5
:10043000663384E70022804B00920193A4E70022F8
:100440000023F9E70098019903F0EEFF7B4901F0E2
:10045000E7FC041C03F096FF05F08AF803F01CFF8C
:10046000059002F0A9F9011C201C01F0E9FF041C11
:10047000FE20391C800501F0E3FF291C01F0C0FEBD
:10048000211C0090381C01F0BBFE011CFE208005E1
:1004900001F0D6FF291C01F0B3FE0490FE20211CC0
:1004A000800501F0CDFF391C01F0AAFE011CFE20E1
:1004B000800501F0C5FF291C01F0A2FE059B071C69
:1004C000039C042B00D98BE018005A4901F0D4F8A2
:1004D000032648617A00281C01F092FE03F052FFC7
:1004E00005F0DEF8039BF61801F0EAFA5149F070C6
:1004F000381C01F085FE03F045FF05F0D1F801F04E
:10050000DFFA4C49B070009801F07AFE03F03AFF30
:1005100005F0C6F801F0D4FA707085E7049801F090
:100520006FFE03F02FFF05F0BBF801F0C9FA341994
:10053000E0704049281C01F063FE03F023FF05F042
:10054000AFF801F0BDFA3B49A070009801F058FEE9
:1005500003F018FF05F0A4F801F0B2FA607063E749
:10056000009801F04DFE03F00DFF05F099F801F041
:10057000A7FA3419E0702F49281C01F041FE03F05E
:1005800001FF05F08DF801F09BFA2A49A070381C94
:10059000DCE7009801F034FE03F0F4FE05F080F88B
:1005A00001F08EFA3419E0702249049801F028FE17
:1005B00003F0E8FE05F074F801F082FA1D49A0701E
:1005C000281CC3E7381C01F01BFE03F0DBFE05F01E
:1005D00067F801F075FA3419E07016490098E5E7FC
:1005E0001449281C01F00CFE03F0CCFE05F058F86D
:1005F000039BF41801F064FA0E49E070009801F0D2
:10060000FFFD03F0BFFE05F04BF801F059FA094970
:10061000A07004989AE7C046D002002000E06F4026
:10062000007076400000B443000059400000C8420A
:100630000000002000007F430080764000007042F0
:1006400070B5464B464CE022236082235B0063601A
:100650000023D200E2608022A360236163612362F1
:100660006362A36223630833636323009200A26181
:10067000E93AFF3AE261113AE2625D331B7886B0F3
:10068000DBB2002B18D12200802536495C32137072
:1006900088696D01284388618A6933482A4000923D
:1006A000009A28220192263A029201A9013203936C
:1006B0000492059300F058FD230002225D33216867
:1006C0001A700B683E3293430B60E023E268DB0054
:1006D0009A4239D9F02000250001824238D1206B9E
:1006E000002803D19A4236D902232363A66863689F
:1006F000A06933432669334366693343E66933436C
:10070000266A3343A66A33438026B6000640334345
:100710000B60636A000C1A43636B1A43042318408E
:10072000104305434D60CB69104A00251340CB614F
:10073000012325665D3423700A2229000C4804F049
:1007400011FE280006B070BD80256D019A42C6D00A
:100750000020A062C3E70123C7E7C0460030014084
:10076000D00200200010024000040048FFF7FFFF05
:100770003403002010B5040004F02AFE210001F02B
:100780001FF8080010BDF7B5032545430191280067
:10079000C9B2160000F0EEFB01AF79783200040018
:1007A000681C00F0E7FBB97832000443A81C00F095
:1007B000E1FBE4B20443E4B260426041C0B2FEBD7A
:1007C00000220C21034B1A8019710B39D9709A70D1
:1007D0007047C0461402002010B502280CD0104B00
:1007E000DA78032A06D0D870DA78D2B2012A04D097
:1007F000002A02D0FFF7E4FF10BD19880A431A80CF
:100800001A79002A08D01A88520092B21A801A79EE
:10081000013AD2B21A71EFE70122024B1A70EBE7EC
:1008200014020020660100200FB4F0B501258FB03E
:10083000149C2078002877D0661C252803D0FFF769
:10084000AFFC1496F4E763781496732B0FD16E1CEB
:1008500014ABAD005D192D682878002803D102344F
:1008600014943500E4E7FFF79BFC0135F4E7642BB3
:1008700024D16B1C0193AD0014AB5D192F680025CA
:100880000135AE0002AB3800043E0A21F61800F034
:1008900097FF380031600A2100F00CFF071EEFD1EE
:1008A000013D02AAAB00D358224AD05CFFF778FC86
:1008B000002DF5D102341494019DB9E7632B08D1C2
:1008C0006E1C14ABAD005D192868C0B2FFF768FC60
:1008D000C5E7782B26D100226B1C0193AD0014AB29
:1008E0005D192B680F27551CA9001F40081F02AE79
:1008F00037501B090FD1012005420ED08B51951C9A
:10090000013D02AAAB00D3580A4AD05CFFF748FC6D
:10091000002DF5D1CEE72A00E4E7012DF0D10393B5
:100920000135EDE7002E83D10FB0F0BC08BC04B058
:100930001847C046E05A000810B501680148FFF7A3
:1009400073FF10BDF15A000810B501680148FFF7A8
:100950006BFF10BD055B0008F8B50F001600040022
:100960000025B54200D1F8BDAB006268F958206897
:1009700000F000FB002802D00248FFF755FF0135C8
:100980000834EEE71A5B000810B500240C4B210078
:10099000E3181A780B4813000134FFF745FF0C2CBD
:1009A000F4D1094B1878094B00021B781B0418433B
:1009B000034B1B781843064B1B781B06184310BDCE
:1009C000ACF7FF1F3D5B0008ADF7FF1FAEF7FF1F41
:1009D000AFF7FF1FE020164B10B51A68516881432E
:1009E000516082215868490088420CD18020996862
:1009F0000002814203D08020C000814203D1402008
:100A00001168814311608020996A8001814206D17A
:100A10001068084C204010601068014311601A00F3
:100A200001215D32117000225C3303201A7010BD69
:100A3000D0020020FFDF0000F8B504000D00100018
:100A40001E1C8A4213D901F007FF071C280001F081
:100A500003FF011C381C01F0F3FC311C01F0D0FB3A
:100A600001F016F8002800D101302018F8BD881ACE
:100A700001F0F2FE311C01F0C3FB01F009F800287F
:100A800000D10130201AF1E7F0B504008BB001204D
:100A9000002C3ED025003D352B78DBB2002B2FD12A
:100AA00022003C32137022683D498A4233D1022130
:100AB00080263C4AB602D0690843D061D06908401C
:100AC000049004985069304350615269902032403C
:100AD0000392039A4022079303330691089305A9D2
:100AE000023BC0050592099300F03EFBC421FF20A4
:100AF0002D4B89005A5882435A50802252021A6064
:100B000002232B702068211D00F0ACFA0123002085
:100B10002B700BB0F0BD25498A4213D18020214AA9
:100B20008002916901439161C52193698900034065
:100B30000593059B1C4B1E485A5802405A50802270
:100B40009203DCE71B498A42DAD18026154AF60275
:100B50009069194F3043906191693140C5260291E7
:100B600002991149B6008859384088518020C00345
:100B700008608020516980020143516152690793E6
:100B800002400192019A9020802208930523059249
:100B900005A97E3AC0050692099300F0E5FAAFE791
:100BA000000400400010024000E100E00044014069
:100BB000FF00FFFF00480140FFFF00FFF7B5050001
:100BC00002273C3501952A7803003800012A44D0D9
:100BD0001E0073253D3637701B6801381A6A824340
:100BE0001A621A6A58689C69BA43AC430D681B4F75
:100BF0002C438D682A43BB4205D0194DAB4202D02D
:100C0000184DAB4213D10825AA43CD682A430425C9
:100C1000AA43BB4205D0124FBB4202D0114FBB4288
:100C200005D1114F8D6938404F692F4338435860C3
:100C300048689C6158631A620822986909690243EE
:100C400004209A619A6982439A619A6900200A4352
:100C50009A6101233370019B1870FEBD002C014086
:100C60000044014000480140FFFCFFFF70B5002038
:100C70001D25094B094C08211A78504046B2420004
:100C8000D0B2002E01DA6A40D0B201390029F5D184
:100C90000133A342EFD170BDACF7FF1FB8F7FF1FC0
:100CA000F7B5674C012122005C3211702100654DBF
:100CB0005D312E680A780300D2B20220012A78D171
:100CC0001000002B75D002320A7000220421226627
:100CD000A187E187A11DCA8721000831CA87226444
:100CE0002265E2648022A168A3631202914205D1C9
:100CF00080222168D201086802430A6040212268EC
:100D00001068084202D1106801431160E021E068D8
:100D1000C900884255D96168002902D0E18F0129B4
:100D200006D119880233D160E18F013989B2E18798
:100D30000220454FE18F00292BD1C02142484901B3
:100D400093680B4208D02B689B1B8342F8D9FFF7AE
:100D500041FE002800D06CE0802021683A4A8B6870
:100D6000034207D02B689B1B9342F8D9FFF732FE52
:100D700000285ED1A368002B06D101932368DA68AE
:100D800001929B680193019B206E431E9841C0B263
:100D90000FE09168014207D019880233D160E18FDA
:100DA000013989B2E187C5E72968891BB942C1D9F0
:100DB0000320230001225D331A7000235C3423706A
:100DC000FEBD6168002902D0E18F012909D1E18FC0
:100DD000012919D919880233D160E18F023989B20A
:100DE000E1870220184FE18F0029A6D091680142C7
:100DF0001AD0E18F01290FD919880233D160E18F10
:100E0000023989B2E187EEE7197801331173E18F76
:100E1000013989B2E187E4E7197801331173E18F71
:100E2000013989B2E187DEE72968891BB942DAD93D
:100E3000BEE72023226E134323662023236699E70F
:100E4000D0020020680100200F270000F0B53C4EC2
:100E500089B0337907000425002B1FD07379013D39
:100E6000002B1BD034690135002C17D0A168F36822
:100E70000025CB18984211D300F01CFC616800F0EB
:100E80009FFCF760B160237B052B56D1A3690195C8
:100E90000793019B6269934203D30025280009B0A0
:100EA000F0BD019A264F236992003D69D3582A6A02
:100EB0000693EB69981ABB6998472B000290283378
:100EC000187801F0C9FC1F4900F0AAFF2A6A029BAA
:100ED00094466344061C180001F0BEFC03F052FA6D
:100EE00002900391301C03F04DFA02000B00002029
:100EF000154902F0BBFE02000B000298039902F0B4
:100F000035FC02900391686A01F0A6FC311C01F0E7
:100F100077F903F037FA02000B000298039901F009
:100F2000E1FC00F0CDFD7B6A0590012205A906A831
:100F30009847019B01330193ABE70125AEE7C0461B
:100F4000680100200000C8420000F03FFA21074B72
:100F500010B51868890000F0ADFB00F0B5F9044A3F
:100F60000020136A1B021B0A136210BD2800002018
:100F700000ED00E030B50A4C0323656D85420CD3CB
:100F800015334343256DEB181961A16DDD685218C7
:100F90005D6099605A6118600023180030BDC0463A
:100FA00068010020F0B52E4C0700237889B002209C
:100FB000002B19D06378002B16D06368002B01D06A
:100FC000606B98470026236BFB1A0693244DEB6A4F
:100FD0009E420BD3AB68002B01D0686B9847002072
:100FE0006B6B2F6301336B6309B0F0BD182474433E
:100FF000AB6A1C192368013312D0E3680393236999
:101000000293029A039B93420AD06069874209D3F4
:10101000E260134BDB68002B02D0E1682068984740
:101020000136D3E7A368C01A049301F015FC0590BC
:10103000069801F011FC059900F0F2FE049B079060
:10104000F81A01F009FC059900F0EAFE00906D69BC
:10105000079B029A61680398A847E060D9E7C046F9
:1010600090010020194A10B50368904202D0184C34
:10107000A04208D17024A3434C68234390420BD074
:10108000134CA04208D0134CA04205D0124CA042F1
:1010900002D0124CA04203D1114C2340CC68234310
:1010A0008024A3434C69234303608B68C3620B68AD
:1010B0008362904205D0084B984202D0074B984279
:1010C00001D10B6903630123436110BD002C014072
:1010D000000400400020004000440140004801405E
:1010E000FFFCFFFF044B054A5B685B055B0FD35CAD
:1010F000034A1068D840704700100240B0570008FB
:101100002800002070B5144C88B0210004AD0831CF
:101110001022280004F022FA21001022183168461B
:1011200004F01CFA0C220D4E73681A40082A11D1E3
:101130000F20990C01406C5C6946F26A0240895CA0
:10114000DB0305D5064800F0B5FA604308B070BD72
:101150000448FAE70248F9E7B057000800100240D7
:1011600000127A0000093D00F0B50B6887B00293C9
:1011700000230191029ADA4001D107B0F0BD0122AB
:101180009A4003920399029A0A40009200D18CE09F
:10119000019A1021526816008E43022E0ED10725A7
:1011A0001D40AD000139A940DC08A4000419276ADC
:1011B0008F4301990969A9400F43276203245F0007
:1011C000BC40E4430568013E2540AC46032515407C
:1011D000BD4061460D430560012E0FD80199866818
:1011E000CD682640BD4035438560466803991509A2
:1011F0008E4301210D409D4035434560C5680199EE
:101200002C408D688021BD4049052C43C4600A42B2
:101210004BD00121264C0326A5691E400D43A56134
:10122000A4699D080C400594059C0F242149AD003C
:10123000B6006D18B4409021AF68C905A7430024DB
:1012400088420CD01C490134884208D01B49013423
:10125000884204D01A490334884200D1023CB44089
:1012600000993C430E00AC60164CCD4327683E43CA
:10127000D10301D43E002E4026606768009E3E43A5
:10128000910301D43E002E406660A768009E3E4355
:10129000D10201D43E002E40A660E668009F37438D
:1012A000920201D42E403700E760013362E7C04666
:1012B00000100240000001400004004800080048FF
:1012C000000C004800040140094A431E01209342DB
:1012D0000DD8C021074A08485360036A09061B025B
:1012E0001B0A0B43036200200723906013607047C2
:1012F000FFFFFF0010E000E000ED00E00121114BD6
:1013000011481A680A431A605A6802405A601A68FB
:101310000E4802401A601A680D4802401A605A6866
:101320000C4802400F205A60DA6A8243DA621A6B74
:10133000094802401A635A6B8A435A6300229A6032
:101340007047C046001002400CB8FF08FFFFF6FED1
:10135000FFFFFBFFFFFFC0FFECFEFFFF02200222AA
:10136000294B4042196810B508610C6914422CD011
:101370000138086118003C300478012C02D04A6B17
:101380000021017090211A64C905086940210140BB
:10139000981DC08F92B2904204D218000830C08FBE
:1013A000904219D8180048300088904221D2180085
:1013B0004A30008890421CD901220EE0012A08D848
:1013C000D978124B49002C330EE00B69DB0719D595
:1013D0000861FFF7F5F915E0002200290CD04C3325
:1013E000D9780A4B490028335B18985CFFF7F4F969
:1013F00008E0FF220029ECD14C3399780029DDD197
:1014000001229A7010BDC046C8010020B0570008E4
:10141000414A70B5130052331878404C404B0128B4
:1014200058D1110053310978802953DC00251D70F3
:10143000536D3C4ECB40034222D0936D1D6A8543D1
:101440001D621D6A28431862B3425FD0364883424A
:101450005CD03648834259D001201D68284318606B
:101460005332013111700122A369D9681143D96047
:1014700019680A431A600222A36952421A6170BDB8
:10148000936D1D6A85431D62186A294D1862B34227
:1014900005D02548834202D0244883420AD1186AE5
:1014A000284207D11E6A2348064203D1586C224EB7
:1014B00030405864186A284207D11D6A1D48054209
:1014C00003D101251868A843186013000120953343
:1014D0001870C5E701201870A369D9688143D960E5
:1014E0001D6A13490D4206D11D6A12490D4202D1EF
:1014F00019688143196090238021DB0599621100EE
:101500000023523153320B701370B4E780205D6CAE
:101510000002284358649FE7C801002048020020C9
:101520002C000020002C01400044014000480140F4
:101530001111000044040000FF7FFFFF0123074A50
:1015400010B55169194207D053619022D205116933
:1015500003481940FFF768F910BDC0460004014078
:10156000515B0008024A1368013313607047C0469C
:101570006801002070B5244C0600250058352988E4
:101580002248FFF751F9002E32D12B8801339BB24C
:10159000042B2BD82B802500583529881C48FFF7B1
:1015A00043F923005C331888052100F083F82D8867
:1015B0002600691C80B200F007F9164B6D005D191A
:1015C0002D8E5A36EDB23080642D18D9290012487C
:1015D000FFF72AF9290011485A34FFF725F9238823
:1015E000002B02D00E4AD360D36170BD0423D1E733
:1015F000012ED0D12B88002BCDD0013BCAE7084B60
:101600002C331D70E6E7C046480200207A5B0008D4
:101610008B5B0008B05700088F5B0008BB5B0008BD
:101620002C000020F0B5CE46474615042D0C2E00A8
:1016300080B50704140C3F0C9946030C7E435D43B0
:10164000674363437F19340CE4199C46A54203D9D0
:1016500080235B029846C4444B46514343433604BF
:10166000360C250C24046544A41959184919200086
:101670000CBC90469946F0BD02B471464908490039
:10168000095C49008E4402BC7047C04603B47146F1
:10169000490840004900095E49008E4403BC704778
:1016A00003B47146490840004900095A49008E4474
:1016B00003BC7047002243088B4274D303098B425A
:1016C0005FD3030A8B4244D3030B8B4228D3030C12
:1016D0008B420DD3FF22090212BA030C8B4202D3B4
:1016E0001212090265D0030B8B4219D300E0090ADC
:1016F000C30B8B4201D3CB03C01A5241830B8B42E5
:1017000001D38B03C01A5241430B8B4201D34B03CD
:10171000C01A5241030B8B4201D30B03C01A524132
:10172000C30A8B4201D3CB02C01A5241830A8B42B7
:1017300001D38B02C01A5241430A8B4201D34B02A0
:10174000C01A5241030A8B4201D30B02C01A524104
:10175000CDD2C3098B4201D3CB01C01A52418309B8
:101760008B4201D38B01C01A524143098B4201D3F2
:101770004B01C01A524103098B4201D30B01C01A1D
:101780005241C3088B4201D3CB00C01A5241830897
:101790008B4201D38B00C01A524143088B4201D3C4
:1017A0004B00C01A5241411A00D201465241104624
:1017B0007047FFE701B5002000F0F0F802BDC04619
:1017C0000029F7D076E7704703460B437FD4002209
:1017D00043088B4274D303098B425FD3030A8B42C5
:1017E00044D3030B8B4228D3030C8B420DD3FF222F
:1017F000090212BA030C8B4202D31212090265D0FD
:10180000030B8B4219D300E0090AC30B8B4201D3AF
:10181000CB03C01A5241830B8B4201D38B03C01AF6
:101820005241430B8B4201D34B03C01A5241030B6D
:101830008B4201D30B03C01A5241C30A8B4201D31E
:10184000CB02C01A5241830A8B4201D38B02C01AC9
:101850005241430A8B4201D34B02C01A5241030A40
:101860008B4201D30B02C01A5241CDD2C3098B4225
:1018700001D3CB01C01A524183098B4201D38B01A2
:10188000C01A524143098B4201D34B01C01A524145
:1018900003098B4201D30B01C01A5241C3088B428A
:1018A00001D3CB00C01A524183088B4201D38B0075
:1018B000C01A524143088B4201D34B00C01A524117
:1018C000411A00D201465241104670475DE0CA0FEE
:1018D00000D04942031000D34042534000229C46AE
:1018E00003098B422DD3030A8B4212D3FC228901B8
:1018F00012BA030A8B420CD3890192118B4208D38E
:10190000890192118B4204D389013AD0921100E0EF
:101910008909C3098B4201D3CB01C01A5241830903
:101920008B4201D38B01C01A524143098B4201D330
:101930004B01C01A524103098B4201D30B01C01A5B
:101940005241C3088B4201D3CB00C01A52418308D5
:101950008B4201D38B00C01A5241D9D243088B422B
:1019600001D34B00C01A5241411A00D201466346CE
:1019700052415B10104601D34042002B00D5494232
:10198000704763465B1000D3404201B5002000F071
:1019900005F802BD0029F8D016E770477047C04629
:1019A0008446101C62468C46191C634600E0C04603
:1019B0001FB501F079FE002801D40021C8421FBDE7
:1019C00010B501F0D3FD4042013010BD10B501F05B
:1019D0006BFE002801DB002010BD012010BDC046B9
:1019E00010B501F061FE002801DD002010BD0120CE
:1019F00010BDC04610B501F0F3FD002801DC002049
:101A000010BD012010BDC04610B501F0E9FD002851
:101A100001DA002010BD012010BDC0468446081C1C
:101A20006146FFE71FB500F0A9FB002801D40021A3
:101A3000C8421FBD10B500F03BFB4042013010BD55
:101A400010B500F09BFB002801DB002010BD012039
:101A500010BDC04610B500F091FB002801DD00204C
:101A600010BD012010BDC04610B500F047FB002896
:101A700001DC002010BD012010BDC04610B500F0F3
:101A80003DFB002801DA002010BD012010BDC0463A
:101A90009E2110B5C905041CFFF7F0FF002803D1F3
:101AA000201C00F069FE10BD9E21201CC90500F01D
:101AB000C7FC00F061FE80231B069C466044F2E7F1
:101AC00070B500220C4B04000D00FFF79DFF0028AD
:101AD00004D12000290002F0DFFB70BD064B00227C
:101AE0002000290002F0C2F802F0D6FB80231B067A
:101AF0009C466044F1E7C0460000E041F0B5C646B0
:101B00004E024702760A7B0A4400C50FF7004800E0
:101B1000984600B5240E2A00DB00000EC90FBC4613
:101B20008D4267D0221A002A00DCA5E000283AD1B5
:101B3000002F00D193E0511E002900D0BCE0012409
:101B4000DB1B5A0146D59B019E09300002F0F6FCD2
:101B500005388640844200DD9DE0041B32002020D1
:101B60000134E240041BA64033005E1EB341002452
:101B700013435A0704D00F221A40042A00D004331A
:101B80005A0129D50134FF2C00D181E02A009B01A4
:101B90005B0AE4B25B02E405580AD2072043104313
:101BA00004BC9046F0BDFF2CE3D080213800C9046E
:101BB000084384461B2A00DD82E020206146D14094
:101BC000821A604690400200501E82410A439B1ACE
:101BD0005A01B8D45A07CED1DE082A00FF2C3AD1D8
:101BE000002E00D1AEE08023DB0333435B025B0AAF
:101BF000FF24CFE7211A002952DD002831D0FF2C25
:101C0000B7D080203E00C0040643B4461B2900DD47
:101C1000AAE020266046C840711A66468E40310010
:101C20004E1EB14101435B185901D3D50134FF2C3D
:101C300000D187E0012278491A405B080B4013432A
:101C400097E7002C00D0A7E0002B00D0B6E03B1EA9
:101C500062D10026002273025B0AE4B29AE7140004
:101C600087E7002F4DD0481E002857D16344012438
:101C70005A01AFD50224DDE7002A24D1621CD2B27A
:101C8000012ADEDDDE1B720135D5FE1A0D005CE790
:101C90002A0000237EE73300604A241A134068E7D5
:101CA000002963D1611CC8B201284EDDFF2949D04B
:101CB00063445B080C005CE7FF2A41D00A0079E727
:101CC00001229B1A84E7002C1DD0FF2822D08024FB
:101CD000E404524223431B2A00DD8AE01C00202535
:101CE000D440AA1A93405A1E9341234362460400EB
:101CF000D31A0D0025E7002E00D026E7002200248D
:101D0000A9E70C0035E7002B4DD0D243002AEDD0D7
:101D1000FF28E0D16346FF240D002AE7FF290FD0FA
:101D2000010073E7002B61D0FF24002F00D120E7D2
:101D300080224146D203114202D0164200D13B001C
:101D4000FF2416E7FF24002324E7002CEAD1002B10
:101D500058D0002F00D10CE763445A0100D439E772
:101D60002E4A0C00134004E701215CE7002C1ED131
:101D7000002B40D0C94300290BD0FF2836D01B29A7
:101D800047DC1C002026CC40711A8B40591E8B4129
:101D900023436344040047E7002B18D13B1E2DD09A
:101DA0000D00FF24E5E63B0004000D00E1E6FF28FE
:101DB0001CD08024E40449422343E0E7002F00D1F3
:101DC000D7E6DE1B72011FD5FB1A0D00D1E6FF24FA
:101DD000002F00D1CDE680224046D2031042AFD082
:101DE0001642ADD13B000D00FF24C2E66346FF243E
:101DF000BFE601237AE73B000400BAE68026002212
:101E0000F603F0E63B00B4E6331E00D0E2E6002223
:101E100021E70123BDE7C046FFFFFF7DFFFFFFFB7A
:101E2000F0B557464E46DE464546E0B5440243000F
:101E3000C60F83B00F1C640A1B0EB24653D0FF2B93
:101E400027D08022E400D20414437F2252429046DD
:101E50009844002399469B467D027800FB0F6D0A4B
:101E6000000E009324D0FF2846D080230021ED00EF
:101E7000DB041D437F384746381A4F460F43BF00E7
:101E8000B9463300009A874F53404A46BA580193E7
:101E90009746002C4ED108239946F7339846FD3BD0
:101EA0009B467D027800FB0F6D0A000E0093DAD18D
:101EB000002D26D1002001213300009A7A4F534093
:101EC0004246101A4A460A439200BA581D009746E5
:101ED000009B2C009A468B465B46022B31D1534621
:101EE000FF21002438E0002C17D104239946002359
:101EF000984601339B46AFE7FF20002D0BD102210E
:101F0000DAE7280002F01AFB431F9D4076235B426C
:101F1000181A0021AFE70321ADE7200002F00EFB05
:101F2000431F9C4076235B421B1A98460023994628
:101F30009B4691E70C239946F3339846FC3B9B461E
:101F40008AE7032B00D1A5E05546012B00D081E0A4
:101F50000123002100242B406402C905600ADB072D
:101F60000843184303B03CBC90469946A246AB4692
:101F7000F0BD80240023E403FF21EDE7FF210024CE
:101F8000EAE70123591A1B2966DD019A1340002153
:101F90000024E1E78023DB031C4238D01D4251D0EE
:101FA0001C436402640A3300FF21D5E763016C011E
:101FB000A3423BD21B260021013801251F00490006
:101FC0005B00002F01DB9C4201D81B1B2943013E13
:101FD000002EF3D11C00631E9C410C4301007F3195
:101FE0000029CEDD630704D00F232340042B00D04B
:101FF0000434230103D501002C4B80311C40FE2901
:102000000DDD0123019AFF2113400024A4E7802362
:10201000DB031C436402640A3300FF219CE70123B5
:10202000019AA401640AC9B2134095E71B1B1A2642
:102030000121C2E7009B8B469A4600244CE76302CD
:10204000E5D500258024E4032C436402640A009B48
:10205000FF2181E70195C1E723002020CB40411AF1
:102060008C40611E8C411C43630704D00F23234026
:10207000042B00D00434630105D50123019A01210A
:102080001340002468E70123019AA401640A134065
:10209000002161E78023DB031C436402640A53468A
:1020A000FF2159E7EC5700082C580008FFFFFFF705
:1020B00070B5420045024E024C00C30F6D0A120E6D
:1020C000760A240EC90F0120FF2A06D0FF2C03D068
:1020D000A24201D1B54206D070BD002DFCD1FF2C2B
:1020E000FAD1002EF8D18B4206D00120002AF3D17C
:1020F0002800451EA841EFE70020EDE7F0B54200BB
:1021000045024C02C30F48006D0A120E640A000E0D
:10211000C90FFF2A1ED0FF2821D0002A0AD16E4203
:102120006E41F6B200280FD1002C0DD10020002DF9
:1021300009D005E0002801D1002C01D08B4211D03C
:10214000012158420843F0BD002EF7D0012001398B
:102150000843F8E7002DDED002204042F3E7002CD0
:10216000DBD0F9E78242EBDC04DBA542E8D80020B3
:10217000A542E8D20121581E0843E4E7F0B5420029
:102180004D024C004602760A120EC30F6D0A240E51
:10219000C90FFF2A16D0FF2C18D0002A0AD170428E
:1021A0007041C0B2002C15D0002805D001200139A3
:1021B0000843F0BD002C13D0994214D001205B429B
:1021C0001843F6E70220002EF3D1E4E70220002DA9
:1021D000EFD1E2E7002DE7D10020002EE9D0EDE7B6
:1021E000002DE9D1EAE7A24206DCDFDBAE4203D8EC
:1021F0000020AE42DAD3DCE7012049420843D8E7A9
:10220000F8B557464E464546DE46E0B5470246001D
:1022100088467F0A360EC40F002E47D0FF2E24D0EA
:10222000FB008027FF041F43002399469A467F3E08
:1022300043465D025800DB0F6D0A000E984643D0FE
:10224000FF283BD0EB0080250022ED041D437F38A2
:102250003618731C41469B464B46614013430F2B77
:1022600064D875489B00C3589F46002F42D108236D
:102270009946063BFF269A46DAE74146022A28D0CD
:10228000032A00D1CEE0012A00D0ACE011400020AA
:102290000022CCB24002D205400AE407104320439A
:1022A0003CBC90469946A246AB46F8BD002F15D1DE
:1022B00004239946033B00269A46B9E7FF200222F1
:1022C000002DC5D00322C3E7002D19D10020012223
:1022D000BEE70124FF220C400020DBE7380002F0BB
:1022E0002DF97626431F9F4000237642361A9946E1
:1022F0009A469DE70C239946093BFF269A4697E7A5
:10230000280002F01BF9431F9D4076235B42181AF8
:1023100000229DE780200024C003FF22BAE73D0091
:102320005246ABE73D0021005246A7E73B0C9C46D6
:102330002A04120C2B0C1400604665463F043F0C27
:102340007C4342435D437B43270C9B18FF18BA42F2
:1023500003D980235B029C46654424043A04240C80
:10236000121993015C1EA3413F0C920E7D191A4372
:10237000AD0115432B0104D501235E466A081D40BB
:10238000154332007F32002A25DD6B0704D00F236E
:102390002B40042B00D004352B0103D53200274BF2
:1023A00080321D40FE2A94DC0124A801400AD2B2EA
:1023B0000C406FE78020C003074207D0054205D1DB
:1023C00028434002400A4446FF2263E73843400264
:1023D000400AFF225EE70124A31A1B2B05DD0C40F7
:1023E0000022002056E75E46CBE72A002020DA4094
:1023F000C31A9D402B005D1EAB4113435A0704D006
:102400000F221A40042A00D004335A0104D50124B3
:1024100001220C4000203DE701249B01580A0C409A
:10242000002237E780200124C00328434002400AED
:102430000C40FF222EE7C0466C580008FFFFFFF754
:10244000F0B54F46D64646464400C0B5C20F4702D7
:102450004802400A844666467B0A4800C90F9A46ED
:10246000240E1500DB00000E8946F600FF2800D17F
:102470008FE001214F464F403900914266D0221A29
:10248000002A00DC9DE000283DD1002E00D18BE029
:10249000511E002900D0B5E001249B1B5A0144D5F0
:1024A0009B019F09380002F049F8053887408442B3
:1024B00000DD96E0041B3A0020200134E240041BBA
:1024C000A7403B005F1EBB41002413435A0704D0C2
:1024D0000F221A40042A00D004335A0127D50134B0
:1024E000FF2C00D179E001229B015B0AE4B22A4073
:1024F0005B02E405580AD207204310431CBC9046F7
:102500009946A246F0BDFF2CE0D08021C9040E43BD
:102510001B2A7BDC31002020D140821A9640721E9B
:1025200096410E439B1B5A01BAD45A07D0D10122BF
:10253000DF082A40FF2C33D1002F00D1A8E08023F0
:10254000DB033B435B025B0AFF24D1E7211A00292E
:102550004CDD00282AD0FF2CB8D08020C0040643D0
:102560001B2900DDAFE030002027C840791A8E40DB
:10257000711E8E4106439B195901D6D50134FF2C9B
:1025800000D185E001227A491A405B080B401343D1
:102590009CE7002E00D070E76BE73B1EC5D1002200
:1025A0007B025B0AE4B2A3E714008FE7002E4DD054
:1025B000481E002857D19B1901245A01B5D5022481
:1025C000E0E7002A25D1621CD2B2012A72DD9F1BEE
:1025D0007A0135D5F71A0D0064E7012200232A405D
:1025E00086E73B00634A241A13406FE700296CD149
:1025F000611CC8B201284EDDFF2949D09B195B0838
:102600000C0063E7FF2A41D00A0081E701269B1BEB
:1026100089E7002C1CD0FF2821D08024E4045242FA
:1026200023431B2A00DD96E01C002025D440AA1A73
:1026300093405A1E93412343F31A04000D002DE7E3
:10264000002F00D02EE700220024A9E70C003DE770
:10265000002B58D0D243002AEED0FF28E1D133001E
:10266000FF240D0032E7FF2910D0010078E7002B8E
:102670006ED0FF24002E00D128E780225146D203DD
:10268000114203D06146114200D13300FF241DE7FF
:10269000FF2400232CE7002CE9D1002B63D0002E6F
:1026A00000D113E79B195A0100D43EE7314A0C00D0
:1026B00013400BE7002C1ED1002B2FD1002E4FD042
:1026C00033000D0002E7012655E7002C1FD1002B37
:1026D00043D0C94300290BD0FF2839D01B2944DC43
:1026E0001C002027CC40791A8B40591E8B41234374
:1026F0009B19040040E7002B1AD1002E24D180271B
:102700000022FF031BE7330004000D00DEE6FF2874
:102710001ED08024E40449422343DFE7002E00D189
:10272000D4E69F1B7A0100D437E7F31A0D00CDE6FB
:10273000FF24002E00D1C9E680225046D203104269
:10274000A4D060461042A1D133000D00FF24BDE6A5
:102750003300FF24BAE601236EE733000400B5E638
:10276000002700221CE73300B0E60123C0E7C04683
:10277000FFFFFF7DFFFFFFFB41024300C20F490A3D
:102780001B0E00207E2B0DDD9D2B0CDC8020000419
:102790000143952B0ADC9620C31AD9404842002AEF
:1027A00000D108007047034BD018FBE7963B9940D7
:1027B000F4E7C046FFFFFF7F70B5002830D0C31795
:1027C000C4185C40C50F200001F0B8FE9E231B1A00
:1027D000962B0DDC9622D21A94402A006402640AD9
:1027E000DBB26402DB05600AD2071843104370BDF8
:1027F000992B19DC9922D21A002A29DD9440220053
:10280000144C1440510704D00F210A40042A00D070
:102810000434620113D4A401640ADBB22A00E0E7A5
:10282000002200230024DCE705222100121AD140F7
:10283000B922D21A9440621E94410C43DAE7054B48
:102840002A001C409F23A4011B1A640ADBB2C8E7BC
:102850002200D5E7FFFFFFFB10B5041E27D001F0D3
:102860006DFE9E231B1A962B0ADC9622D21A9440E8
:102870006402640ADBB26402DB05600A184310BD1F
:10288000992B17DC9922D21A002A27DD94402200C6
:10289000134C1440510704D00F210A40042A00D0E1
:1028A0000434620112D4A401640ADBB2E3E700231A
:1028B0000024E0E7B9222100D21A91400A00511EFB
:1028C0008A410521091ACC401443DBE7044B1C4024
:1028D0009F23A4011B1A640ADBB2CCE72200D7E7CE
:1028E000FFFFFFFBF8B54546DE4657464E460C0354
:1028F000E0B54E00C90F88460D00610A440F0C4335
:10290000C70019035800DB0F9B464B0A510F0B43BE
:10291000760D400D1900D200D84500D1AEE0351A31
:10292000002D00DCF6E000280FD1134300D1DBE0DE
:102930006B1E002B00D037E1BA1A9742BF41641AD0
:102940007F42E41B0126170024E0C64B9E424DD077
:1029500080231B041943382D00DD07E11F2D00DD06
:1029600038E12020431B9A460B005046834099468D
:1029700013004846EB401843030050468240501E67
:102980008241E9401A43BA1A611A9742A4411700DA
:1029900064420C1B230262D56402650A002D00D13B
:1029A000DFE0280001F0CAFD0300083B1F2B00DD1B
:1029B000D2E020223C00D21A9D40D4409F402543C3
:1029C0009E4200DDC4E09E1B731C1F2B00DDF1E066
:1029D000202238002900D21AD840914097402C007C
:1029E0000143781E8741DC4000260F437B0709D056
:1029F0000F233B40042B05D03B1DBB42BF417F4210
:102A0000E4191F0023022CD5964B01369E4200D1BB
:102A10009AE04546944BFF081C4060077605640227
:102A20000743240B760D00212403230B0C0D8F4A42
:102A300024051C431440330523435B00ED075B086A
:102A40002B43380019003CBC90469946A246AB4641
:102A5000F8BD6446044300D111E2040067467B07D9
:102A6000C6D145466007FF080743E4087D4B9E42F8
:102A700030D024037605240B760DD4E7331A9A461A
:102A8000002B78DD002831D076488642AED08020F9
:102A9000000401435346382B00DCE9E00A43511E91
:102AA0008A410021D219BA42BF4109197C4217005C
:102AB0000C192302D3D56B4B01369E4200D13AE16B
:102AC0000120694B1C407B0807401F43E007074378
:102AD00064088BE723003B4300D1CBE18022120343
:102AE00014432403240B9EE72E007FE708001043C5
:102AF00000D1B4E0581E002800D0DEE0BA18BA4277
:102B00009B4164185B42E418170001262302A6D5F6
:102B10000226D5E7002D6ED1701C4005400D01281E
:102B200000DCF9E0B81A844687428041E51A404249
:102B30002D1A280200D489E0D71BBA4292411C1BEF
:102B40005242A51AD84629E74546002400276AE7DD
:102B5000454CF61A2C4049E73D00283885400027AF
:102B60002EE7380001F0EAFC20301DE70A43511E31
:102B70008A41002107E7002B00D0F3E0701C4305D9
:102B80005B0D012B00DCADE0364B984200D1D1E06B
:102B9000BA18BA42BF4164187F42E419E7075208E5
:102BA00017436408060021E72E48854200D193E0D0
:102BB0001D00D0E629001F3EF140202B00D18DE002
:102BC0004022D31A9D402F437D1EAF4100240F4366
:102BD000002644E72B000800203BD8400300202DAE
:102BE00000D17DE04020451BA9400A43511E8A4187
:102BF00000211A43C7E6002E50D01A4EB04257D0DB
:102C000080266B429946360434434B46382B00DD10
:102C1000D6E01F2B00DD35E12026F51A2600AE4058
:102C2000B2463E00DE40AC46350056462E43654671
:102C3000AF407D1EAF41DC403743D71BBA429241C3
:102C40000C1B5242A41A0600D846A3E66446674607
:102C50002C4300D0A2E600250026002706E71E0030
:102C6000C4E6C046FF070000FFFF7FFFFFFF0F80A5
:102C70001F2B63DC2020C31A080098409C46834623
:102C800053461000D84003005846184363469A4004
:102C9000531E9A4153460243D94003E726003E4360
:102CA00006D0EB439946002BC7D0944EB042ACD12E
:102CB0000C0017000600D84698E6904B9A450BD0BA
:102CC0008246E7E6002800D09EE01800104300D1BD
:102CD000E9E01C001700D846884E87E6002572E719
:102CE000002182E723003B43002E00D0ABE0002B05
:102CF00000D1E7E00B00134300D177E6BA18BA42DF
:102D0000BF4164187F42E419230200D4F2E07C4BF7
:102D100017001C40060069E620003843002ED1D180
:102D200000285BD11C00144300D1A8E01C00170050
:102D3000D8465BE606000024002797E650460B00C5
:102D40002038C34099465346202B00D195E04023BC
:102D500050461B1A99400A43511E8A414B46002196
:102D60001A439FE6002E30D126003E4367D0DB4356
:102D70009A46002B1CD0614EB04260D05346382B8F
:102D800000DD96E01F2B00DD9FE02026F31A2600D1
:102D90009E409C46B34653463E00DE4033005E46AE
:102DA0001E4363469F407B1E9F415346DC40374392
:102DB000BF189742924164185242A418060078E660
:102DC00027437C1EA741002437E74C4EB04236D043
:102DD00080265B4236049A463443CFE718001043FE
:102DE00000D103E6B81A84466745AD41E01A6D424A
:102DF000401B050200D42CE6D71BBA4292411C1B93
:102E00005242A41AD846F1E51800104300D163E7F6
:102E1000F808670707438020E4080003044208D04D
:102E2000DD08054205D1D208590711430F002C00D7
:102E3000D8467B0FE4001C43FF00304ED6E50C0063
:102E400017000600D2E5002B38D00B00134300D149
:102E500042E7F808670707438020E40800030442BC
:102E6000E7D0CB080342E4D1D208490711430F0051
:102E70001C00DEE700270024D5E500216BE70025D4
:102E80000027F3E54E462500203EF5404B462E0038
:102E9000202B2DD04025ED1AAC4027437C1EA741A6
:102EA00000243743C9E6802400252403134E00275D
:102EB000DCE527437C1EA741002479E70C001700BE
:102EC0000E4E93E50C00170090E556462300203E79
:102ED000F34099465346202B0ED0402356469B1B69
:102EE0009C4027437C1EA7414B4600241F435FE7BD
:102EF0000024D2E71700B2E50024F2E7FF07000044
:102F0000FFFF7FFFF0B557464546DE464E46E0B52B
:102F10004C000E0387B0834692461D008046360B58
:102F2000640DCF0F002C4FD06F4B9C4235D08023C7
:102F3000420F1B04F600134333439946C3009846DF
:102F40006A4B00269C460023644403932B031B0B0F
:102F50009B466B00ED0F50465B0D01955ED0624ABB
:102F6000934253D05A46D1008022400F12040243AC
:102F70000A4393465246D1005C4A94460022634479
:102F80003800684084460290E41A16430F2E00D998
:102F9000B4E0574BB6009B599F4603003343994614
:102FA0006CD100239846023308260393CEE7CB4624
:102FB0004146039A0197022A65D1019B4A4C9C46DF
:102FC0000023002298466BE00300334399464ED01D
:102FD000002E00D1BCE1300001F0B0FA03000B3B41
:102FE0001C2B00DDACE11D22D31A5A460100DA4049
:102FF00008398E401300334399465B468B40984610
:1030000000233C4C0026241A03939FE751465A465E
:10301000114329D1002293460232B1E759460143B8
:103020001ED05B46002B00D19EE1584601F086FA87
:1030300003000B3B1C2B00DD8FE102005946083AD0
:1030400091408B461D21CB1A5146D9400B00594661
:103050000B4351469B469140264B00221B1A8FE79B
:10306000002301229B468BE75146032288E7002379
:103070009846013304260024039367E70323B146EF
:1030800003930C2662E7032A00D15CE2019B012A2C
:1030900000D0E4E113409C4600230024002298461F
:1030A00000211203130B0A0D12051A432305124CBB
:1030B00040462240134362465B00D2075B0813433D
:1030C000190007B03CBC90469946A246AB46F0BDFD
:1030D000002380229C4612039846034CE0E700231D
:1030E000014C00229846DBE7FF07000001FCFFFFD0
:1030F000AC5800080DFCFFFFFFFF0F80D94500D939
:1031000039E100D134E1002346464D469A46013C60
:103110005B460A0E1B021A430B02170C039313049F
:103120001B0C3900280090460193FEF7C3FA0200F9
:10313000019B83465A43280039009146FEF740FB25
:10314000350C09040D43A9450DD95B464544013BA7
:10315000A84500D93AE1A94500D837E102235B42EE
:103160009C464544E3444B46EB1A3900180004934F
:10317000FEF7A0FA019B05004343390004989946E5
:10318000FEF71EFB330409041B0C0B43994509D9B8
:1031900043446A1E984500D91AE1994500D817E1C1
:1031A000023D43444A469B1A5A4612042A43039955
:1031B0009346100C0A0C914609045A46090C4E46D7
:1031C0000D001204120C45430591514372437043A4
:1031D00052190E0CB218954203D980256D02AC46E7
:1031E0006044150C09041204090C28185218834273
:1031F00000D2CEE000D1C8E01D1A53469E1AB24557
:1032000092415242AB1A9A46984500D117E13900D3
:103210001800FEF74FFA019B050043433900504662
:103220000493FEF7CDFA04980B04310C194388423D
:1032300009D941446B1E884500D907E1884200D86E
:1032400004E1023D4144049BCB1A18003900049369
:10325000FEF730FA019B82464343390004980193FC
:10326000FEF7AEFA01980B043104090C19438842A9
:103270000DD953464144013B884500D9E8E08842D6
:1032800000D8E5E002235B429C464144E244019BB6
:103290002D04CE1A51462943059D4F462A000B04A2
:1032A000080C1B0C5A4345437B4378435B19170CAE
:1032B000FB189D4203D980256D02AC4660441D0C6D
:1032C00012041B04120C28189B18864200D293E0AB
:1032D00000D18EE001231943A04BE318002B00DC42
:1032E00099E04A0700D09EE05A46D20106D55A46D8
:1032F0009B4B1A4080239346DB00E318994A934284
:1033000068DD0123029A984C1A400023944698469F
:103310000022C5E680224B46120313420AD05B46C8
:10332000134206D11A431203120BAC4688468E4C48
:10333000B6E64B461A431203120BBC468A4CAFE664
:1033400003005A46283B9A4000239146984657E688
:10335000584601F0F3F8203040E603005246283B7F
:103360009A400021934677E601F0E8F820305FE6C6
:10337000884500D2C7E64B46DE075D0843465B083A
:103380001E434346DB079A46C2E60025924500D31A
:1033900033E7039E5946B446E244B245AD416D421F
:1033A0004544EB180139984507D2984200D97FE08F
:1033B00000D1BCE01D1A8B461FE79845FAD1039D4A
:1033C0005545F2D943468B461D1A16E79B46CAE679
:1033D0001500E7E65A46C90852070A435B059046BE
:1033E0005C0D5A460123029952021940120B8C4679
:1033F00056E6002B00D16FE746444A1EB04529D956
:103400001100864200D065E7039A934200D061E73D
:1034100062E7012149420120C21A382A21DD029BBC
:1034200003409C4638E60F220A40042A00D15BE79D
:103430000A00111D914292415242934454E7474B76
:10344000E318002BE5DD01225242F2E71D00FAE607
:103450009A461CE7B04239D86ED011003AE7029381
:103460003AE71F2A3CDC20239B1A0C00584699405F
:1034700098404B1E99415B46D440D34020430843BB
:103480001A00430709D00F230340042B05D0010085
:10349000081D88429B415B42D21813023AD5012392
:1034A000029A01241A400023944698460022F7E528
:1034B000022149428C46039DE344AC46E244AA45BE
:1034C000AD416D424544ED182D1A96E68A1E0399CA
:1034D0004D008D42894149424144761803958FE75A
:1034E0001F204042C31A5846D8400300202A28D043
:1034F00040205D46821A954029434A1E9141194356
:10350000072300220B4009D00F2300220B400800A4
:10351000042BBDD1010053075202120BC9081943F5
:10352000012388460299002419408C46B8E552458B
:10353000BED88B46002560E6039D9D42C6D3110090
:1035400062E70025D8E780225B4612031A43019BFD
:103550001203120B9C468846034CA1E5FF030000B2
:10356000FFFFFFFEFE070000FF070000F0B54F461B
:103570004646D6465C00C0B51F03DB0F9A46174B84
:103580000E034D0084468046360B6D0DC90F9146E3
:103590003F0B640D01209D4208D09C4201D0A54202
:1035A0000BD01CBC90469946A246F0BD63463343FF
:1035B000F7D1AC42F5D13A43F3D10120BE42F0D16C
:1035C000C845EED1514507D0002DEAD163461E43D0
:1035D0003000461EB041E4E70020E2E7FF070000AC
:1035E000F0B54546DE4657464E46E0B51F033D0B57
:1035F0002C4F0E034C00AB465D008446360B640D29
:10360000C90F90466D0DDB0FBC422AD0254FBD423D
:103610002DD0002C0FD130430700814678427841ED
:10362000C0B2002D17D15F463A4314D14B4600205B
:10363000002B0AD006E0002D02D15846024301D0EB
:10364000994218D04842012108433CBC9046994613
:10365000A246AB46F0BD0028F2D00120013B184342
:10366000F3E737000743D1D002204042EDE75F4641
:103670001743CED0F8E7AC42E4DC03DA481E012160
:103680000843E2E75E45DDD806D000205E45DCD287
:103690000123481E1843D8E7C445D3D80020C445A9
:1036A000F6D3D2E7FF070000F0B54E464546DE46AA
:1036B00057465C00E0B51F03DB0F99462A4B0E030B
:1036C0004D00C90F8446360B6D0D8B4690463F0B5F
:1036D000640D9D4220D0244B9C4222D0002D12D15B
:1036E000304343424341DBB2002C1FD0002B0CD0AF
:1036F0004B460120013B034318003CBC90469946D1
:10370000A246AB46F0BD002C16D0CB4517D05B4689
:10371000594201230B43EFE7310002230143EBD170
:10372000D9E7390002231143E6D1D7E73A43DDD187
:1037300000230028E0D0EAE73A43E6D1E7E7A542D4
:10374000E5DC05DBBE42E2D807D00023BE42D3D27F
:103750005946012301390B43CEE7C445D7D800238E
:10376000C445F5D3C8E7C046FF070000F0B557468B
:103770004546DE464E46E0B50C0398464E00230B08
:1037800087B0070092469B46760DCD0F002E6BD07A
:103790006D4B9E4235D080245B46420F2404DB00F3
:1037A00014431C43C3009946684BA3469C46002320
:1037B00000276644029343461C035A00DB0F504621
:1037C000240B520D984600D176E05F4B9A426DD0A3
:1037D0008023410F1B040B435C49E4008C461C43CF
:1037E000C300002062444146B6186940721C019132
:1037F000944607430F2F00D9B0E0554ABF00D25975
:1038000097465B460343994600D087E000239B46DA
:10381000023308270293CEE742460192022867D07E
:10382000032800D10EE2012800D062E10023002429
:103830000022994601990140CDB2002112030B0DDF
:10384000120B1B051343434A240513401C43640019
:10385000ED0764082C434846210007B03CBC904665
:103860009946A246AB46F0BD034399464FD05B460E
:10387000002B00D189E1584600F060FE03000B3BAD
:103880001C2B00DD7AE11D22D31A3A0001005C46B0
:10389000DA4008398C4013008F4023439B46B946D9
:1038A00000232D4E0027361A029384E75346234304
:1038B0002AD10024022096E75346234320D0002C2F
:1038C00000D157E1200000F039FE03000B3B1C2B18
:1038D00000DD49E11D21CB1A51460200D940534673
:1038E000083A944093400C431B4A121A00207AE78E
:1038F0000125019B144C1D400023002299469CE7A2
:103900000024002201206EE7534603206BE70023CA
:103910009B4601330427002602934CE7032381468C
:103920000C27029347E780220023002512039946C3
:10393000054C82E75C464B4602986FE75C464B4677
:10394000019502986AE7C046FF07000001FCFFFFEF
:10395000EC580008FFFF0F800DFCFFFF4A46494668
:10396000170C1A0C1B041B0C08041900000C414313
:103970001500884619007D4379430395894629003F
:10398000150045434D44029545462D0CAA46029D1F
:103990005544A94506D98A46802149028946CA4428
:1039A00051460391290C0491414609042D04090C48
:1039B00088462900250C24044144240C059121004B
:1039C00041438846210079438A4668434146504432
:1039D0008146080C48446F43824503D9802149023F
:1039E00089464F44010C89463900494402914146B9
:1039F0000F0404993F0C88460004C01980444146D6
:103A0000049159460F0C0904090C884659438A460B
:103A100039005143894641464A435146090C8B4679
:103A20007B43D2185A44934203D980235B029B46BE
:103A3000D94451460904090C8A46414661437C43F6
:103A4000130C12044B445244A1468A463C004146A2
:103A50006C434D4351464D440F0C7D19A94503D984
:103A60008021490288464444049F0399B846414452
:103A70008B468345804141428846514608042F04C5
:103A8000000C3F18584602991018894690429241FE
:103A90004F44BA46524299469346C244D144CB441D
:103AA0008F42BF41C245894199459B41934592410F
:103AB0007F4249422D0C52420F435B4213437F1910
:103AC000FF185B463C19DB0D059A64021C43430258
:103AD00013435D1EAB415A46C00D034352021343CC
:103AE000E20156D501205A0803401343E20713436D
:103AF00064085A48604400284DDD5A0709D00F2257
:103B00001A40042A05D01A1D9A429B415B42E418D0
:103B10001300E20104D58020514AC00014406044E3
:103B2000504A904200DDE3E60125DB0862071A43B4
:103B30006402019B9146220B4405640D1D407CE606
:103B4000802259461203114208D0144206D1224362
:103B50001203120B45469946434C6EE65B461A43E8
:103B60001203120B404C68E603005446283B9C406D
:103B70000023B9E600F0E2FC2030A6E60300283B73
:103B80009F400023BB4699468AE600F0D7FC2030D0
:103B900074E6B446ADE701252A1A382A06DD019BF2
:103BA00000241D4000230022994646E61F2A21DCFE
:103BB00020252000AD1A1E00AB40A840D6405D1E57
:103BC000AB4130431843D440430709D00F2303408F
:103BD000042B05D00300181D98429B415B42E4185A
:103BE000230221D50125019B01241D400023002231
:103BF000994622E61F2521006D42281AC14008007F
:103C0000202A1DD05F35AA1A944023435C1EA3418D
:103C1000072503431D400022002D09D00F22002458
:103C20001A401800042AD6D1030065076402220B4B
:103C3000DB082B4301259946019B00241D40FCE530
:103C40000024E2E780220125120322430199120396
:103C5000120B0D409946044CEFE5C046FF030000EF
:103C6000FFFFFFFEFE070000FF070000F0B546461D
:103C7000D6464F460C03C0B5CD0F4E00610A440F27
:103C80000C43C1005800400D84468A460F001903BA
:103C9000500F490A0143C648760DA846DB0FD200F3
:103CA000844500D1D8E001204340AB4200D1A6E0DA
:103CB0006046351A002D00DC05E1002810D10B000C
:103CC000134300D1D7E06B1E002B00D04BE15346CD
:103CD0009F1ABA458041641A4042241A01261EE008
:103CE000B34B9E4248D080231B041943382D00DD7E
:103CF00019E11F2D00DD4CE120230F005B1B10009C
:103D00009A409F40E840531E9A41E94007431743B9
:103D10005346DF1B611ABA45A44164420C1B2302BF
:103D200000D4C5E06402650A002D00D1F6E0280049
:103D300000F004FC0300083B1F2B00DDE9E020221B
:103D40003C00D21A9D40D4409F4025439E4200DD56
:103D5000DBE09E1B731C1F2B00DD0AE120223800D4
:103D6000D21A290097402C009140D8407A1E9741E2
:103D7000DC40002601430F437B0709D00F233B4063
:103D8000042B05D03B1DBB42BF417F42E4191F00FD
:103D9000230225D5864B01369E4200D1AFE0854BEC
:103DA00001251C4043466207FF086402760517435D
:103DB000240B760D1D4000212403230B0C0D7E4A9D
:103DC00024051C431440330523435B00ED075B08C7
:103DD0002B43380019001CBC90469946A246F0BD02
:103DE000012543466207FF081743E4081D40704B56
:103DF0009E4236D024037605240B760DDBE763461E
:103E0000F31A002B00DC94E06046002835D06848A7
:103E10008642B1D080273F043943382B00DCFDE0D7
:103E20000A43170000217A1E9741574457458041A5
:103E3000091944420C1923023AD55D4B01369E42C2
:103E400000D14BE101225B4B1C407B0817401F4314
:103E5000E207174364088FE70800104300D024E707
:103E600021E723003B4300D1B9E180221203144330
:103E70002403240B9FE72E007EE70800104300D1A7
:103E8000CAE0581E8446002800D0E7E0524452455C
:103E9000804164184042241817000126230207D5E8
:103EA0000226CFE764462C4300D1B3E12C006746DD
:103EB0007B0700D062E76307FF081F4301254346E5
:103EC000E4081D4093E7002D78D1751C6D056D0D3C
:103ED000012D00DCF2E05046801A8245BF41651A90
:103EE0007F42ED1B8446280200D48CE05046171A0E
:103EF000BA4292410C1B5542651B984614E70125B6
:103F0000434600241D40002755E72A4CF61A2C4052
:103F100032E73D0028388540002717E7380000F0D9
:103F20000DFB203006E70A43170000217A1E974157
:103F3000EEE6002B00D0E5E0731C9C465B055B0DB4
:103F4000012B00DC9FE01A4B9C4500D1C5E0524498
:103F500052458041641840422418E707520817432D
:103F60006408664608E71248854200D185E01D00D6
:103F7000BCE629001F3EF140202B00D17FE040220B
:103F8000D31A9D402F437D1EAF4100240F430026CE
:103F90008EE72B000F00203BDF40202D71D0402307
:103FA0005D1BA9400A43511E8A4100211743AFE619
:103FB000FF070000FFFF7FFFFFFF0F80002E3ED0B6
:103FC000B34EB44545D0802636046D423443382D77
:103FD00000DDA8E01F2D00DD1FE120262700504650
:103FE000761BB740E84007435046B040461EB041FC
:103FF000EC403843171ABA4292410C1B5242A41AA1
:10400000664698468BE6644667462C4300D08BE6AE
:10401000002500260027EAE61E00ADE61F2B60DC27
:104020002027F81A0F00844687401000D840074325
:1040300060468240501E8241D9401743F5E6260073
:104040005046064305D0ED43002DD3D0904EB445E5
:10405000BDD10C001700664698468DE68C48834219
:104060000BD06346D9E6002D00D096E0080010433F
:1040700000D1E2E00C0017009846854E7CE6002552
:1040800080E700218EE7230050460343002E00D036
:10409000A8E0002B00D1DEE00B00134300D16BE65B
:1040A00052445245804164184042241817002302AC
:1040B00000D4FDE6774B66461C405DE62500504681
:1040C0000543002ECFD1002D4FD10C00144300D159
:1040D000A0E00C00170098464EE666460024002734
:1040E00085E61F000800203FF8400700202B00D184
:1040F0008EE04020C31A99400A43511E8A41002194
:10410000174392E6002E14D126005046064362D093
:10411000DB43002B5CD187189742924164185242CE
:10412000A418664687E650462043441EA04100245A
:1041300060E7574EB4454ED0802636045B42344388
:10414000382B00DD7FE01F2B00DD8BE020262700D1
:104150005046F61AB740D84007435046B040461E76
:10416000B0410743DC40BF18D6E70D00154300D12E
:1041700002E65046801A8245BF41651A7F42ED1B18
:104180008446280200D48DE65046171ABA4292415E
:104190000C1B5242A41A9846EEE50D00154300D1BF
:1041A0006BE750466707C00807438020E408000318
:1041B000044207D0CD08054204D12C009846D70808
:1041C00049070F437B0FE4001C43FF00304ED3E54B
:1041D0002F4EB445B4D10C0017006646CCE500273D
:1041E0000024E8E5002B39D00B00134300D144E74D
:1041F000C008670707438020E40800030442E1D0B9
:10420000CB080342DED1D70849070F431C00D9E78A
:10421000002171E700250027E9E52E002700203E58
:10422000F740202D2FD04026751BAC405046204330
:10423000441EA04100243843DCE6802400252403EA
:10424000134E0027D3E5504620430700781E8741D0
:104250000024BF1860E70C0017008DE50C00170064
:104260000B4E89E51E002700203EF740202B0CD086
:104270004026F31A9C4050462043441EA041074369
:104280000024BF1848E70024D0E70024F3E7C04625
:10429000FF070000FFFF7FFF30B5134D0A034B00FF
:1042A000120B5B0DC90F0024AB4210DD0F4CA34273
:1042B0000FDC80240E4D64032243ED1A1F2D0BDD0D
:1042C0000C48C31ADA405442002900D114002000DF
:1042D00030BD094BCC18FAE7084CE840A4466344CB
:1042E0009A400243EFE7C046FE0300001D040000B1
:1042F0003304000013040000FFFFFF7FEDFBFFFF0E
:1043000070B5002830D0C317C4185C40C50F20001A
:1043100000F014F9174B184A1B1AD21A1F2A18DD7D
:10432000164AD21A9440002224035B05240B5B0D2D
:104330000021100024030A0D240B12052243104C07
:104340001B05224013435B00ED075B082B4319005C
:1043500070BD210091400A000B21081AC4405B0582
:104360002403240B5B0DE3E7002500230024002237
:10437000DEE7C0461E040000330400001304000002
:10438000FFFF0F804100090E4B1C70B5DBB24602E7
:10439000750AC40F012B14DDE0239B006D07360B5B
:1043A000CB1800210A0D280012051C4D32435B0575
:1043B0002A405B0813435B00E4075B0823431900B2
:1043C00070BD002914D1002D1ED0280000F0B6F8D1
:1043D0000A281CDC0B232A001B1ADA4003001533C1
:1043E0009D400F4B12031B1A5B05160B5B0DD8E7A4
:1043F000002D06D0320B802636036D071643094B7D
:10440000CFE7084B0026CCE700230026C9E70300CE
:104410002A000B3B9A400025E3E7C046FFFF0F80D0
:1044200089030000FF070000F0B54C00640D0B038A
:10443000621C450F5B0A52052B43C90FC500520D84
:10444000012A28DD3A4AA618FE2E1BDC002E3EDD8E
:1044500080010200501E82416D0F2A43DB0013438E
:104460005A0704D00F221A40042A00D004338022B5
:10447000D2041A405AD00136FF2E03D09B015B0AAA
:10448000F4B201E0FF2400235802E405400AC90702
:1044900020430843F0BD002C07D01D43F2D08020FC
:1044A000DB0080040343FF26DAE72B4303D0052318
:1044B000DB08FF2C03D05B025B0AE4B2E4E7002BCD
:1044C00032D08020C00303435B025B0ADCE732008A
:1044D000173214DB80221E2712041343BF1B1F2F29
:1044E0000FDC144A944664442A00A5402E00A340E1
:1044F000751EAE41FA40334313430026B0E7002453
:10450000D5E702225242961B1A00F240202F09D012
:10451000094884466444A3402B435D1EAB410026FA
:1045200013439DE70023F7E70023ADE73400BFE71F
:1045300080FCFFFF82FCFFFFA2FCFFFF1C21012388
:104540001B04984201D3000C10391B0A984201D376
:10455000000A08391B09984201D30009043902A254
:10456000105C40187047C0460403020201010101BB
:1045700000000000000000001023F0B5B14E95B01F
:104580003268B14D13433360FCF7E0FC0121AA69A6
:10459000AE4C0A43AA61AB69AD4A0B400493049B3D
:1045A000E3690B311B021B0AE361236A1340236298
:1045B000236A1B021B0A23626A68A64B00960A4202
:1045C00008D06A680A40082A00D012E16A68D2035B
:1045D00000D50EE12A68F8212A688A43110080225A
:1045E0000A430C212A606A680A40082A00D10EE1B9
:1045F0002A6899490A4080212A60186889042A6833
:104600000A4200D005E10F21EA6A8A43EA626A6839
:1046100092491140A02292030A436A6080222968CD
:1046200052040A4380212A60186889042A680A42D1
:1046300000D1F4E00121009A12680A420AD1009ADE
:10464000009812688A430A430260009A12680A427C
:1046500000D1DCE0F0216A688A436A602A6892012E
:1046600000D4D4E06A68ED398A43110002220A437B
:104670006A6019687A480C266A683240082A00D0B5
:10468000D3E0009B774A1B686B680CAF13406B60EC
:10469000FCF738FD6B68744A1B061B0FD35C734E26
:1046A000D8403060FCF752FCFA2130688900FDF7F1
:1046B00001F8FCF709FE04236D4A902011680026DA
:1046C0000B4380211360236A89021B021B0A2362A9
:1046D0006A69C0050A436A616B690B4080210693D1
:1046E000069B6A69C9020A436A616B69FE600B40F6
:1046F0000593059B01230C935E4B39007B60FCF70F
:1047000033FDC1215C4B89005A585C485C4C024027
:104710005A5020221A605B4BA6602360E1235B02A3
:1047200063600C2363612300E6602661A661E66195
:104730002662666269331B78DBB2B3421BD122006A
:10474000802168321370AA69C9010A43AA61AB6962
:1047500090200B400793079BC023DB000C930223A0
:104760007B60013BBB600233FB603900023BC0054C
:104770003B61FCF7F9FC23002422266869331A7098
:104780003368233A934333602069A3683168034355
:104790006069E26903433C48134301400B433360C3
:1047A00073683A49206A0B40E1680B437360A36960
:1047B000B1680343364801400B430321B3602B6BC0
:1047C0000B402949CB18187C80231B029A4201D048
:1047D00000F0B6FC082801D900F063FCFCF760FF8C
:1047E0002B0061045A0061045704610461046104F0
:1047F0005B04012229680A4302212A6018682A689A
:104800000A4200D0E7E61A68121A022AF7D900F025
:104810004BFD1A68121A022A00D8F0E6F7E71A6868
:10482000121A022A00D801E7F1E71A68521A8242E6
:1048300000D820E7EBE7FCF755FC636840005B0815
:104840002BE0C046002002400010024000ED00E0D6
:10485000FFFF00FF68010020FFFFFFFEFFFFC2FF18
:1048600088130000FFF8FFFF6457000828000020AD
:1048700010E000E00000111000E100E0FF00FFFF89
:10488000E000002000380140F369FFFFFFCFFFFF89
:10489000FFF4FFFF63685808E44BC0186168FCF739
:1048A00009FF002380B20F22010000079143400F4F
:1048B00022680843D060012BA9D0636A002B51D035
:1048C000DA0706D52168DA484A680240A06A02433E
:1048D0004A609A0706D52168D6484A680240E06ACD
:1048E00002434A605A0706D52168D3484A68024005
:1048F000206B02434A601A0706D52168CF484A68F0
:104900000240606B02434A60DA0606D52168CC4853
:104910008A680240A06B02438A609A0606D5216825
:10492000C8488A680240E06B02438A605A0610D584
:104930002168C54E4A68206C324002434A6080229A
:104940005203904205D14A68C0480240606C02435D
:104950004A601B0606D52268BD4953680B40A16C0E
:104960000B4353602368BB495A680A4008215A60C8
:104970009A688A439A60012219680A431A600023E0
:104980002200E36669322033137022006A3213700A
:104990002300002268331A70FBF7F6FF0600FCF7CD
:1049A00065F9032132000300AB48FBF73DFFFBF73D
:1049B000EBFF00F0DFFCA94B08AA143343CB43C242
:1049C0001B6813603A00A54B243343CB43C243CB4F
:1049D00043C203CB03C23A00A14B043343CA43C3CF
:1049E00043CA43C303CA03C300239D4A53631363EB
:1049F0009C4B93621E23D3620023994A1E00D26A05
:104A0000934200D2C3E30023954A537001231370ED
:104A10009369002B05D09847914B58620020FCF712
:104A2000C1FA01238E4A00265370FE2202AB5A714E
:104A3000F43A1E719A7103213000FCF7ABFF002994
:104A400012D103313000FCF7BFFE320001000190AB
:104A50008548FBF7E9FE019B03999A00834B019877
:104A6000D6500A22FBF78FFE01361E2EE3D1804B73
:104A70001A009C46143208AB43CB43C21B68002685
:104A8000136063466246DE601E610123137001936A
:104A90000321019AFE230A4200D17F3B3B7064232D
:104AA0007B70BB703000734A3968FBF76CFE019B6A
:104AB00001365B009BB201930A2EE9D16E48FBF7E9
:104AC000B3FE6E4E33680193019A33689B1A6C4AA9
:104AD000934200D863E300266A48FBF7A5FE6A4BC1
:104AE0006A4A1E806A4B6B49138023672300743324
:104AF0001E70694B69481980A167FBF795FEE66750
:104B00006748FBF791FE674C674B20002360674BBB
:104B10006660E3608023A66026616661A361FBF79F
:104B2000B3FFB04200D13EE36148FBF77DFE614C2C
:104B3000614B624E2360002320006360A360E66047
:104B400023616361A361FBF79FFF0196002800D1F9
:104B50005EE35748FBF768FE6B686B686B68009B09
:104B60001B686C68FCF7BEFA630500D54000302175
:104B7000FCF7A0FDFA218900FCF79CFD504B504A40
:104B800018600323434301004E489380FBF74CFE1B
:104B90004B4B4D489988FBF747FE2F234B4C484A17
:104BA000636000234A4D9288A36023612000803314
:104BB0002560E260A361FBF767FF0095002802D043
:104BC0004448FBF731FE21003C310B78012B00D12A
:104BD00052E3200002233D30037023683E4D9A6863
:104BE0002A4007259A609A68AA439A6001230370B5
:104BF00000230B7023003D331B78DBB2002B02D166
:104C000022003C321370250002263D3533492068CE
:104C10002E70FCF727FA3C239C460122A4446346ED
:104C20002A701B78934200D12AE359E00024F40053
:104C3000FFFFFDFFFFFFFEFFFFFFFBFFFF7FFFFF0B
:104C4000FFEFFFFFFFDFFFFFFFFFEFFFFFFF9FFF14
:104C5000FFFFF7FFFFF7FFFF2C590008645700081C
:104C600090010020540300206E590008A802002083
:104C70006C010020B80B0000955900086801002065
:104C8000B70B0000AC590008A0020020A4020020CD
:104C90003075000070170000A2020020B259000811
:104CA000C9590008200200200048014035050000D5
:104CB000E9590008600200200044014083A600007A
:104CC00060010020F1590008025A0008C8010020C4
:104CD00000040040155A00088800FFFFCC010020A6
:104CE000772023682E709968F024814308005421AE
:104CF00001439960196A186A904318629869A04341
:104D000098614020E63C21431962D9688143D9600B
:104D1000D968E6480140D9602A70002362461370C2
:104D2000E34C21003C310B78012B00D1ACE2200098
:104D3000022370253D30037023685A68AA435A60E5
:104D40005A685A6080229D6895439D609D682A43F9
:104D50009A600123037000230B7023003C331B78FF
:104D6000012B00D194E2230002223D331A70236804
:104D7000013A196ACF4D914319629869196AAB4299
:104D800002D0009DAB4202D103229043023A02437B
:104D9000F0208243E63801439A6119620C219A6936
:104DA0008A439A619A699A61230001223D331A70FD
:104DB000230000223C331A7002220125FA212368C5
:104DC00052421A61DA68BC482A43DA60BB4B890058
:104DD0001E687043FCF76EFC6A46FA210090B84BDF
:104DE0001288B8481A8089007043FCF763FC6A4651
:104DF000FA2101909288B44BB4481A80890070431C
:104E0000FCF758FCFA21B24B89001880B148704376
:104E1000FCF750FCB04B18806B46B0489A88198854
:104E2000FBF702FDAC4BAE481A88A94B1988FBF77B
:104E3000FBFCFBF7C5FC02222368AA48D9680A4399
:104E4000DA601A6AAA431A621A6A2A431A621A684C
:104E500015431D60FBF7E8FCA34C237B052B05D114
:104E60002369002B0BD06369002B08D0002001229E
:104E70009E4BDC60986058605A70FBF7E7FF9C4BD4
:104E80001B88002B01D0A360A3619A4B1B68009381
:104E90008A4B9B79002B00D178E01F210120964A94
:104EA00015881388ADB29B090B40BB701388203165
:104EB0000B40FB701188090B014039701388DB0A25
:104EC00003407B703B78002B03D1FA7840331343C7
:104ED000FB700024794B9C71FBF772FC290087481A
:104EE000FBF7A2FCB9788648C9B2FBF79DFCF978BC
:104EF0008448C9B2FBF798FC39788348C9B2FBF7FC
:104F000093FC79788148C9B2FBF78EFC8048FBF7A7
:104F10008BFC784B7F4D1B682000EB67FCF72AFB6E
:104F2000296F7D48FBF780FC7C4E03213088FCF71D
:104F3000C1FB2B6F84B21A1B210079482A67FBF74B
:104F400073FC30880521001BFCF73EFC754B19886B
:104F50000131FCF739FC664B81B218807248FBF7CF
:104F600063FC00F035FAFF21FCF714FDFF23FA2261
:104F700039707B70BB70920039680620FBF703FC28
:104F8000FA22396892000720FBF7FDFB614C009B79
:104F9000A26F9B1A564A1288934214D32500743587
:104FA0002E78009B31006148A367FBF73DFC05218B
:104FB0003000FCF705FC332359434B4BC9B259620F
:104FC0002B7833332B70226F009B9B1A534A128825
:104FD000934253D9009B56482367FBF725FC00F00A
:104FE000F7F9FF21FCF7D6FCFF23FA227B70BB7098
:104FF0003970920039680220FBF7C5FBFA22396844
:1050000092000320FBF7BFFBFA22396892000820C8
:10501000FBF7B9FBFA22396892000920FBF7B3FBD2
:10502000FBF724FE80239B01184303B29C46002318
:1050300001201900022662461A418D00010002403B
:105040009A402943002A01D02900314301330E2B15
:10505000F1D10120374B1960374B1870374B1B6863
:10506000DA680243DA601A6802431A6023000022F9
:1050700074331A70009BA367FCF77CFA1D4B1C6805
:105080002000FBF7E3FE2000FBF78CFFFDE6FCF7BA
:1050900039F8FFF7D2FB6368580880235B02FFF7FB
:1050A000FCFB01230020FFF7FEFBC046FFBFFFFF14
:1050B000C8010020002C01407602000060010020A1
:1050C0000C020020920400000E020020FA050000ED
:1050D0001002002016080000120200201D5A0008CD
:1050E000345A00084D5A0008300000206C0100209E
:1050F000A20200206801002014020020525A000879
:105100005E5A00086A5A0008765A0008825A000857
:10511000705B0008E00000208E5A0008A402002006
:105120009F5A0008A0020020AA5A0008C55A000889
:10513000CC5A00081C0200201A0200206002002045
:10514000082801D9FFF763FBFCF7A0FA090061FB0F
:105150000E0061FB190061FB61FB61FB1C00FBF7AA
:10516000C1FF63685B0802E0636858084A4B6168E6
:10517000C018FCF79FFA80B2F060FFF79EFBFBF7C8
:10518000C1FFEEE76368580880231B02EFE70022A7
:1051900030001100FBF7EEFE330001332DE43068E0
:1051A000FBF700FF90E423003D331B78DBB2002BBC
:1051B00002D122003C321370260002233D363749CB
:1051C00020683370FBF74EFF0123337060230C938C
:1051D0004E23FF337B60002339002000BB60FB605F
:1051E0003B617B61BB61FBF7E9FC002800D09BE4DD
:1051F00023003C331A78012A00D195E40222802151
:1052000032702268890151640122187032708EE474
:1052100023003D331B78DBB2002B02D122003C324D
:105220001370260002233D361D4920683370FBF7BA
:1052300019FF0123337060230C93019B39007B60BD
:1052400000232000BB60FB603B617B61BB61FBF71F
:10525000B5FC002800D07CE423003C331A78012AF6
:1052600000D176E40222C02132702268C901516463
:105270000122187032706FE40A48FBF7D5FAB9E4DE
:105280000848FBF7D1FA4BE50648FBF7CDFA64E591
:105290000448FBF7C9FA8FE500127A0024020020C7
:1052A00064020020155A000810B5054C2000FBF7D9
:1052B000BBFA0448FBF7B8FA2000FBF7B5FAFEE7A3
:1052C0006E5B0008735B00080D488546002103E013
:1052D0000C4B5B58435004310B480C4B42189A421C
:1052E000F6D30B4A02E0002313600432094B9A42C2
:1052F000F9D3FCF703F800F011F8FFF73DF9FEE7EA
:1053000000100020DC5B000800000020C40000202A
:10531000C400002034060020FEE7000070B500261F
:105320000C4D0D4C641BA410A64209D1002600F0C0
:105330000DFA0A4D0A4C641BA410A64205D170BD9B
:10534000B300EB5898470136EEE7B300EB589847A7
:105350000136F2E7D45B0008D45B0008D45B000898
:10536000D85B000803008218934200D1704719707F
:105370000133F9E7104B70B51C680500A36B002BD7
:1053800015D1182000F060F80C4BA06303800C4B83
:10539000012243800B4B83800B4BC3800B4B03815B
:1053A0000523438106338381002302614361002288
:1053B000A36B1D615A6170BD600000200E330000B8
:1053C000CDABFFFF341200006DE6FFFFECDEFFFF08
:1053D000154B10B51C68A36B002B15D1182000F0DD
:1053E00033F8124BA0630380114B01224380114B11
:1053F0008380114BC380114B038105234381063306
:105400008381002302614361A46B0D4A20696169B5
:105410000C4BFCF707F90122002380185941206149
:1054200061614800400810BD600000200E3300009C
:10543000CDABFFFF341200006DE6FFFFECDEFFFF97
:105440002D7F954C2DF4515810B5034B0100186871
:1054500000F004F810BDC04660000020032370B5C2
:10546000CD1C9D43083506000C2D1ED20C25A942EB
:105470001DD8300000F062F8254A14682100002988
:1054800019D1244C2368002B03D1300000F044F8DC
:1054900020602900300000F03FF8431C2CD10C2381
:1054A0003000336000F04BF803E0002DDFDA0C230E
:1054B0003360002070BD0B685B1B1AD40B2B03D923
:1054C0000B60CC18256003E08C420ED1636813603A
:1054D000300000F034F8200007220B30231D9043E9
:1054E000C31AE7D05A42E250E4E74B6863600C000D
:1054F000EEE70C004968C2E70323C41C9C43A042AA
:10550000E0D0211A300000F007F8431CDAD1C6E7DA
:105510002406002028060020002370B5064C050054
:105520000800236000F00CF8431C03D12368002B13
:1055300000D02B6070BDC046300600207047704719
:10554000044A1368002B03D0181810601800704725
:10555000014BF9E72C06002038060020002310B587
:105560009A4200D110BDCC5CC4540133F8E700006E
:10557000454AF8B5574692464B005B0D9A444E4655
:105580004546DE465246E0B50C0005000E00894651
:105590000700132A22DC002A47DB52463B4B13410B
:1055A00098460B0042461340034311D0384A394B0A
:1055B000FDF798F900220023FCF71CFA002805D01B
:1055C000002C41DB4E46434600279E433800310005
:1055D0003CBC90469946A246AB46F8BD5246332A9B
:1055E00008DD8023DB009A45F2D102000B00FDF7B5
:1055F00079F9EDE7284A9446012263445242DA40A1
:1056000093460242E4D0224A224BFDF76BF9002276
:105610000023FCF7EFF90028D8D0002C1ADB5B46FA
:105620004E469F4338003100D2E7194A194BFDF727
:1056300059F900220023FCF7DDF90028C6D0002C20
:1056400016DB00270026C1E7802352465B03134187
:105650009944B7E75346142B12D0342352460127FE
:105660009B1A9F407F19AF429B415B429944D6E70A
:105670006400640825430027002DA7D0074EA5E746
:10568000133B9C46E144CAE701FCFFFFFFFF0F000C
:105690009C7500883CE4377EEDFBFFFF0000F0BF07
:1056A000F8B5264A4B005B0D9A1807000C00132A28
:1056B00010DC002A39DB224B13410B4230D080240E
:1056C00024031441002064189C4306002500300088
:1056D0002900F8BD332A0CDD80230600DB000D0015
:1056E0009A42F4D102000B00FDF7FCF806000D0011
:1056F000EDE7144D0600AC46012563446D42DD40E4
:10570000AC4663460D000342E1D033239A1A323B84
:1057100093401818874200D94C1C63469843D4E73D
:1057200006000D000028CAD1D1E7C90FCC07002020
:10573000531CCAD1044B1C43C7E7C04601FCFFFF02
:10574000FFFF0F00EDFBFFFF0000F03FF8B5C04684
:10575000F8BC08BC9E467047F8B5C046F8BC08BC0B
:045760009E467047AA
:10576400000000000000000001020304060708090D
:1057740000040802750700084909000839090008EF
:105784005909000800000000C102000811030008C4
:10579400000000002101000841060008000000008C
:1057A4000000000000000000FFFFFFFF00000000F9
:1057B4000102030402030405060708090A0B0C0D81
:1057C4000E0F10100102030405060708090A0B0C4A
:1057D4000D0E0F100003020002010103000000007F
:1057E40032005A005A000000AC1F00087C1F000859
:1057F4008E1F0008D01E00088E1F0008721F0008AC
:105804008E1F0008D01E00087C1F00087C1F0008A3
:10581400721F0008D01E0008D81E0008D81E0008F9
:10582400D81E0008941F00087C1F00087C1F000875
:10583400501F000834200008501F0008721F000881
:10584400501F0008342000087C1F00087C1F00083B
:10585400721F000834200008D81E0008D81E000853
:10586400D81E00083E2000082C2300087C220008D3
:105874007C2200087A2200081E2300081E23000848
:10588400142300087A2200081E23000814230008A9
:105894001E2300087A220008242300082423000879
:1058A40024230008B4230008FC300008DE3000087C
:1058B40098300008B62F000898300008D03000084F
:1058C40098300008B62F0008DE300008DE300008EB
:1058D400D0300008B62F0008AE2F0008AE2F000805
:1058E400AE2F0008143300085C3900081C38000887
:1058F4001C38000818380008343900083439000806
:1059040026390008183800083439000826390008F8
:1059140034390008183800083C3900083C390008BC
:105924003C390008403B00080D0A537461727469E5
:105934006E672E2E2E2028762564207C2023307836
:105944002578202F2030782578207C204275696CBA
:1059540074204A756C20323420323031373A323276
:105964003A34303A3234290D0A0053657474696E3E
:105974006720424146206368616E6E656C2049442D
:1059840020256420746F20594142492025640D0A62
:10599400005374617274207475726E206F6E206689
:1059A4006164652E2E2E0A00444F4E450A000A0AF1
:1059B40068756520706572696F64203D2025646D8B
:1059C400730A0A0A0053657474696E67207570203F
:1059D40052433520656E636F64652F6465636F643D
:1059E400652E2E2E004572726F720D0A0056616C80
:1059F4007565204B487A203D2025640D0A005243EA
:105A0400352074696D656F7574203D2025640D0A19
:105A1400004552524F520D0A004D696E54203D20EC
:105A240025642C204D617854203D2025640D0A0006
:105A34004D696E3254203D2025642C204D6178320E
:105A440054203D2025640D0A006F6B0D0A0052613D
:105A5400772020307825780D0A0041646472202074
:105A64002025640D0A00436F6D6420202025640DF9
:105A74000A004669656C64202025640D0A00546F91
:105A840067676C652025640D0A004C617374436C70
:105A94006F636B202564202D2D28002564292D2D6E
:105AA4003E2025640A000A0A6E6577206875652021
:105AB400706572696F64203D2025646D730A0A0A5B
:105AC4000048282564292000426561636F6E2043E5
